:100000000C942A000C9447000C9447000C94470071
:100010000C94B4050C94E0050C9488050C9404052C
:100020000C9430050C945C050C9447000C94AC04C3
:100030000C94D8040C9427060C9418060C944700D2
:100040000C9401030C9447000C9447000C94470057
:100050000C94470011241FBECFE5D8E0DEBFCDBF12
:1000600010E0A0E6B0E0EAE8F5E102C005900D92EC
:10007000A03BB107D9F721E0A0EBB0E001C01D9291
:10008000A535B207E1F70E9490020C94C30A0C94C4
:100090000000CF93DF93EC0104C0219690E00E9412
:1000A000140688818111F9CFDF91CF910895EF92E5
:1000B000FF920F931F93CF93DF93CDB7DEB7C45654
:1000C000D1090FB6F894DEBF0FBECDBF0E941F024C
:1000D000162F072FF82EE92E0E9428029F938F9348
:1000E0007F936F93EF92FF920F931F9384E690E0BC
:1000F0009F938F938E010F5F1F4F1F930F930E944B
:10010000D907C8010E9449000FB6F894DEBF0FBEA0
:10011000CDBFCC59DF4F0FB6F894DEBF0FBECDBFB9
:10012000DF91CF911F910F91FF90EF9008958BEA8F
:1001300090E00E9461020E947C016091A800709191
:10014000A9008091AA000E949D0160E085EA90E0EC
:100150000E9431028FE990E00E94EF0166E48FE98E
:1001600090E00E94090208951F93CF93DF93CDB7CB
:10017000DEB727970FB6F894DEBF0FBECDBF81E084
:100180008983BE016F5F7F4F8BEA90E00E948002FF
:100190008981811115C08091B0009091B100A0912A
:1001A000B200B091B3008C599F4FAF4FBF4F8093B7
:1001B000B0009093B100A093B200B093B30008C018
:1001C0001092B0001092B1001092B2001092B300E1
:1001D000CE0102960E948E01CE0104960E949301E8
:1001E000CE0106960E9498018A819B8189359240B2
:1001F00038F48C819D818935924020F081E003C0E4
:1002000081E001C080E04091B0005091B100609168
:10021000B2007091B300483251056105710510F4C8
:10022000882359F16091A8007091A9008091AA00DB
:100230000E94B90161E085EA90E00E94310280915C
:100240006000813099F40DC0612F8FE990E00E9429
:1002500009028FE19EE40197F1F700C00000115000
:1002600001C016E41111F0CF109260000E940C063C
:100270000E941B020E94570015C06091A800709157
:10028000A9008091AA000E94C80160E085EA90E080
:100290000E94310281E08093600066E48FE990E083
:1002A0000E94090287EA91E60197F1F700C0000079
:1002B00027960FB6F894DEBF0FBECDBFDF91CF916A
:1002C0001F91089541E060E081E00E942A0340E030
:1002D00060E080E00E942A0340E061E080E00E944C
:1002E0002A0340E062E080E00E942A0340E063E0ED
:1002F00080E00E942A030895CF93DF931F92CDB729
:10030000DEB7809163008983CE0101960E94970237
:100310000E94E0020F90DF91CF910895BC0181E02F
:100320000E94E5020895BC0182E00E94E502089562
:10033000BC0183E00E94E50208951F93CF93DF93F1
:10034000C62FD72F182F41E0672F8C2F0E942A032A
:10035000113031F440E06D2F8C2F0E94AD0305C0A9
:1003600041E06D2F8C2F0E94AD03DF91CF911F9143
:100370000895962F813031F441E0672F892F0E9434
:10038000AD03089540E0672F892F0E94AD030895C3
:10039000962F813031F440E0672F892F0E94AD0302
:1003A000089541E0672F892F0E94AD030895CF93F0
:1003B000DF93EC0180E00E94950440E06981888130
:1003C0000E94AD0340E06B818A810E94AD0340E052
:1003D0006D818C810E94AD03DF91CF910895CF9301
:1003E000DF93EC0141E0698188810E942A0341E0AA
:1003F0006B818A810E942A0341E06D818C810E9479
:100400002A030E947B04CE010E94D701DF91CF9185
:100410000895009779F0653668F4FC018581853090
:1004200021F4862F0E9495040895843019F4862FB4
:100430000E94950408950E940C0681E00895609141
:1004400040017091410180914201909143010895D2
:10045000609144017091450180914601909147015E
:100460000895FC019281913091F4613039F441E0BA
:10047000618180810E94AD0380E0089561111BC0FD
:1004800040E0618180810E94AD0380E00895911178
:1004900014C0613039F440E0618180810E94AD0375
:1004A00080E0089561110BC041E0618180810E946C
:1004B000AD0380E0089581E0089581E0089581E032
:1004C0000895CF93DF930097B9F0EC0140E0698184
:1004D00088810E942A03882311F081E001C080E016
:1004E000882329F040E0698188810E94AD03CE0114
:1004F00002960E94970201C080E0DF91CF9108959B
:10050000009751F06115710549F0AB01FC01618163
:1005100080810E943004089580E0089580E008956D
:100520000E9462010E9497000E94B400FDCFFC016E
:10053000892B09F43DC08081982F9770D9F188717B
:1005400021F0883011F08031B9F586B18F7786B906
:100550008081982F977086B1887F892B86B980819A
:10056000869586958695982F9295990F990F907CF0
:1005700087B18F73892B87B987B18F7D87B98081C8
:10058000982F907285FF0AC00E94770486B1886018
:1005900086B986B1806886B981E0089591110EC050
:1005A00086B1877F86B986B1806886B981E0089573
:1005B00080E0089580E0089580E0089580E0089547
:1005C00086B1806886B981E008958830B0F46115FD
:1005D0007105A9F03699FECF8F7197B1907E892B66
:1005E00087B986B1806486B93699FECF84B195B15A
:1005F000FB019183808381E0089580E0089580E08D
:1006000008951F920F920FB60F9211242F933F93CC
:100610004F935F936F937F938F939F93AF93BF930A
:10062000EF93FF93E091B400F091B500309709F09B
:100630000995FF91EF91BF91AF919F918F917F911C
:100640006F915F914F913F912F910F900FBE0F903F
:100650001F901895683008F078C041113CC0813077
:1006600099F028F08230E9F0833041F170C02AB36C
:1006700081E090E002C0880F991F6A95E2F78095AB
:1006800082238ABB80E0089527B381E090E002C016
:10069000880F991F6A95E2F78095822387BB80E0D7
:1006A000089524B381E090E002C0880F991F6A95F5
:1006B000E2F78095822384BB80E0089521B381E036
:1006C00090E002C0880F991F6A95E2F78095822317
:1006D00081BB80E008954130E1F5813091F028F050
:1006E0008230D9F0833029F136C02AB381E090E01E
:1006F00002C0880F991F6A95E2F7822B8ABB80E0BF
:10070000089527B381E090E002C0880F991F6A9591
:10071000E2F7822B87BB80E0089524B381E090E06C
:1007200002C0880F991F6A95E2F7822B84BB80E094
:10073000089521B381E090E002C0880F991F6A9567
:10074000E2F7822B81BB80E0089581E0089581E08B
:10075000089581E0089581E00895683008F078C038
:1007600041113CC0813099F028F08230E9F08330AB
:1007700041F170C02BB381E090E002C0880F991F57
:100780006A95E2F7809582238BBB80E0089528B3B9
:1007900081E090E002C0880F991F6A95E2F780958A
:1007A000822388BB80E0089525B381E090E002C0F9
:1007B000880F991F6A95E2F78095822385BB80E0B8
:1007C000089522B381E090E002C0880F991F6A95D6
:1007D000E2F78095822382BB80E008954130E1F505
:1007E000813091F028F08230D9F0833029F136C081
:1007F0002BB381E090E002C0880F991F6A95E2F761
:10080000822B8BBB80E0089528B381E090E002C08A
:10081000880F991F6A95E2F7822B88BB80E00895C4
:1008200025B381E090E002C0880F991F6A95E2F736
:10083000822B85BB80E0089522B381E090E002C066
:10084000880F991F6A95E2F7822B82BB80E008959A
:1008500081E0089581E0089581E0089581E00895A0
:1008600041155105E1F16830E0F58430E0F5811182
:100870000CC089B390E002C0959587956A95E2F720
:100880008170FA01808381E00895813061F486B33C
:1008900090E002C0959587956A95E2F78170FA011C
:1008A000808381E00895823061F483B390E002C0D8
:1008B000959587956A95E2F78170FA01808381E0CA
:1008C0000895833091F480B390E002C095958795A8
:1008D0006A95E2F78170FA01808381E0089580E0F3
:1008E000089580E0089580E0089580E008958FB72E
:1008F00080688FBF089583B7806483BF83B78860A3
:1009000083BF83B78F7C806283BF83B7887F826019
:1009100083BF89B7826089BF0E94770489B78160ED
:1009200089BF0E94770481E00895682F70E080E01D
:1009300090E00E94DE0620E030E048EC52E40E94A5
:100940003D0620E030E04FE753E40E946C070E9430
:10095000AF066CBF81E008951F920F920FB60F9201
:1009600011242F933F934F935F936F937F938F93B4
:100970009F93AF93BF93EF93FF93E091B600F091F5
:10098000B700309709F0099588B7826088BFFF915A
:10099000EF91BF91AF919F918F917F916F915F91F7
:1009A0004F913F912F910F900FBE0F901F90189570
:1009B0001F920F920FB60F9211242F933F934F93D4
:1009C0005F936F937F938F939F93AF93BF93EF93B7
:1009D000FF93E091B800F091B900309709F00995C4
:1009E00088B7816088BFFF91EF91BF91AF919F91D0
:1009F0008F917F916F915F914F913F912F910F90C8
:100A00000FBE0F901F9018951F920F920FB60F9266
:100A100011242F933F934F935F936F937F938F9303
:100A20009F93AF93BF93EF93FF93E091C000F0913A
:100A3000C100309709F0099588B78B7F88BFFF9177
:100A4000EF91BF91AF919F918F917F916F915F9146
:100A50004F913F912F910F900FBE0F901F901895BF
:100A60001F920F920FB60F9211242F933F934F9323
:100A70005F936F937F938F939F93AF93BF93EF9306
:100A8000FF93E091BE00F091BF00309709F0099507
:100A900088B78F7E88BFFF91EF91BF91AF919F91F3
:100AA0008F917F916F915F914F913F912F910F9017
:100AB0000FBE0F901F9018951F920F920FB60F92B6
:100AC00011242F933F934F935F936F937F938F9353
:100AD0009F93AF93BF93EF93FF93E091BC00F0918E
:100AE000BD00309709F0099588B7877F88BFFF91CF
:100AF000EF91BF91AF919F918F917F916F915F9196
:100B00004F913F912F910F900FBE0F901F9018950E
:100B10001F920F920FB60F9211242F933F934F9372
:100B20005F936F937F938F939F93AF93BF93EF9355
:100B3000FF93E091BA00F091BB00309709F009955E
:100B400088B78F7D88BFFF91EF91BF91AF919F9143
:100B50008F917F916F915F914F913F912F910F9066
:100B60000FBE0F901F9018951F920F920FB60F9205
:100B700011242F933F934F935F936F937F938F93A2
:100B80009F93AF93BF93EF93FF93E091C200F091D7
:100B9000C300309709F0099588B7806888BFFF9136
:100BA000EF91BF91AF919F918F917F916F915F91E5
:100BB0004F913F912F910F900FBE0F901F9018955E
:100BC0001F920F920FB60F9211242F933F934F93C2
:100BD0005F936F937F938F939F93AF93BF93EF93A5
:100BE000FF93E091C400F091C500309709F009959A
:100BF00088B7806488BFFF91EF91BF91AF919F91BB
:100C00008F917F916F915F914F913F912F910F90B5
:100C10000FBE0F901F90189510BC83E389B986E82A
:100C200080BD88E18AB908955D9BFECF8CB9089597
:100C30001F920F920FB60F9211248F938091530140
:100C40008CB98F910F900FBE0F901F9018951F9227
:100C50000F920FB60F9211248F93EF93FF93E091B1
:100C60006100F09162008CB18083FF91EF918F91D0
:100C70000F900FBE0F901F9018950E9451060C9474
:100C800032070E942B0758F00E94240740F029F4F5
:100C90005F3F29F00C941B0751110C9466070C94CC
:100CA00021070E94430768F39923B1F3552391F379
:100CB000951B550BBB27AA2762177307840738F0CB
:100CC0009F5F5F4F220F331F441FAA1FA9F335D028
:100CD0000E2E3AF0E0E832D091505040E695001CDC
:100CE000CAF72BD0FE2F29D0660F771F881FBB1F96
:100CF000261737074807AB07B0E809F0BB0B802D74
:100D0000BF01FF2793585F4F3AF09E3F510578F09F
:100D10000C941B070C9466075F3FE4F3983ED4F3F2
:100D2000869577956795B795F7959F5FC9F7880F73
:100D3000911D9695879597F90895E1E0660F771FC5
:100D4000881FBB1F621773078407BA0720F0621B56
:100D5000730B840BBA0BEE1F88F7E09508950E9481
:100D60004B0788F09F5798F0B92F9927B751B0F0EB
:100D7000E1F0660F771F881F991F1AF0BA95C9F71F
:100D800014C0B13091F00E946507B1E008950C9451
:100D90006507672F782F8827B85F39F0B93FCCF304
:100DA000869577956795B395D9F73EF4909580959C
:100DB000709561957F4F8F4F9F4F0895E89409C0BC
:100DC00097FB3EF490958095709561957F4F8F4F7E
:100DD0009F4F9923A9F0F92F96E9BB279395F69594
:100DE000879577956795B795F111F8CFFAF4BB0F12
:100DF00011F460FF1BC06F5F7F4F8F4F9F4F16C076
:100E0000882311F096E911C0772321F09EE8872FFF
:100E1000762F05C0662371F096E8862F70E060E0BB
:100E20002AF09A95660F771F881FDAF7880F969534
:100E3000879597F9089597F99F6780E870E060E0DB
:100E400008959FEF80EC089500240A941616170663
:100E500018060906089500240A94121613061406AB
:100E600005060895092E0394000C11F4882352F00E
:100E7000BB0F40F4BF2B11F460FF04C06F5F7F4FC6
:100E80008F4F9F4F089557FD9058440F551F59F0AD
:100E90005F3F71F04795880F97FB991F61F09F3F67
:100EA00079F087950895121613061406551FF2CF90
:100EB0004695F1DF08C0161617061806991FF1CFE0
:100EC00086957105610508940895E894BB27662707
:100ED0007727CB0197F908950E947F070C9432077A
:100EE0000E94240738F00E942B0720F0952311F070
:100EF0000C941B070C94210711240C9466070E9484
:100F0000430770F3959FC1F3950F50E0551F629F03
:100F1000F001729FBB27F00DB11D639FAA27F00D52
:100F2000B11DAA1F649F6627B00DA11D661F829F79
:100F30002227B00DA11D621F739FB00DA11D621F5E
:100F4000839FA00D611D221F749F3327A00D611D7B
:100F5000231F849F600D211D822F762F6A2F11245D
:100F60009F5750409AF0F1F088234AF0EE0FFF1F90
:100F7000BB1F661F771F881F91505040A9F79E3FE7
:100F8000510580F00C941B070C9466075F3FE4F357
:100F9000983ED4F3869577956795B795F795E7953D
:100FA0009F5FC1F7FE2B880F911D9695879597F946
:100FB0000895AEE0B0E0EFEDF7E00C949A0A0D89E9
:100FC0001E8986E08C831A8309838FEF9FE79E83B7
:100FD0008D83AE01475E5F4F6F89788DCE0101969C
:100FE0000E94FB07EF81F885E00FF11F10822E961B
:100FF000E4E00C94B60AABE0B0E0E1E0F8E00C9479
:101000008C0A6C017B018A01FC01178216828381A4
:1010100081FFCCC1CE0101963C01F6019381F7011D
:1010200093FD859193FF81917F01882309F4BAC1D3
:10103000853239F493FD859193FF81917F0185324B
:1010400029F4B60190E00E94F209E7CF912C212CFF
:10105000312CFFE1F315D8F08B3279F038F480327F
:1010600079F08332A1F4232D20611DC08D3261F00F
:10107000803369F4232D216016C0832D8260382EC1
:10108000E32DE4603E2E2AC0F32DF8601DC037FC2E
:101090002DC020ED280F2A3040F08E32B9F436FCF6
:1010A00081C1232D2064322E19C036FE06C08AE08D
:1010B000989E200D1124922E11C0EAE02E9E200D44
:1010C0001124222EF32DF0623F2E08C08C3621F41D
:1010D000832D8068382E02C0883641F4F70193FDD5
:1010E000859193FF81917F018111B3CF982F9F7DCF
:1010F0009554933028F40C5F1F4F9FE399830DC0E4
:10110000833631F0833771F0833509F059C021C03F
:10111000F801808189830E5F1F4F88248394912C6E
:10112000530113C02801F2E04F0E511CF801A080BA
:10113000B18036FE03C0692D70E002C06FEF7FEF13
:10114000C5010E94E7094C018201F32DFF773F2E74
:1011500016C0280122E0420E511CF801A080B18087
:1011600036FE03C0692D70E002C06FEF7FEFC5014E
:101170000E94DC094C01F32DF0683F2E820133FC04
:101180001BC0822D90E088169906B0F4B60180E26B
:1011900090E00E94F2092A94F4CFF50137FC859182
:1011A00037FE81915F01B60190E00E94F2092110A3
:1011B0002A9421E0821A91088114910471F7E8C001
:1011C000843611F0893641F5F80137FE07C0608199
:1011D0007181828193810C5F1F4F08C06081718192
:1011E000072E000C880B990B0E5F1F4FF32DFF7617
:1011F0003F2E97FF09C090958095709561957F4F20
:101200008F4F9F4FF0683F2E2AE030E0A3010E94ED
:101210002E0A882E861845C0853731F4232D2F7E5F
:10122000B22E2AE030E025C0932D997FB92E8F365B
:10123000C1F018F4883579F0B5C0803719F08837D7
:1012400021F0B0C0E92FE061BE2EB4FE0DC0FB2D31
:10125000F460BF2E09C034FE0AC0292F2660B22ECA
:1012600006C028E030E005C020E130E002C020E107
:1012700032E0F801B7FE07C06081718182819381FD
:101280000C5F1F4F06C06081718180E090E00E5FAF
:101290001F4FA3010E942E0A882E8618FB2DFF7770
:1012A0003F2E36FE0DC0232D2E7FA22E891458F41A
:1012B00034FE0BC032FC09C0832D8E7EA82E05C0E3
:1012C000B82CA32C03C0B82C01C0B92CA4FE0FC0AD
:1012D000FE01E80DF11D8081803321F49A2D997E65
:1012E000A92E09C0A2FE06C0B394B39404C08A2DEF
:1012F000867809F0B394A3FC11C0A0FE06C0B21416
:1013000088F4280C922C9B180EC0B21460F4B6011D
:1013100080E290E00E94F209B394F7CFB21418F47F
:101320002B1802C0982C212CA4FE10C0B60180E31B
:1013300090E00E94F209A2FE17C0A1FC03C088E75A
:1013400090E002C088E590E0B6010CC08A2D867856
:1013500059F0A1FE02C08BE201C080E2A7FC8DE241
:10136000B60190E00E94F209891438F4B60180E3D6
:1013700090E00E94F2099A94F7CF8A94F301E80D65
:10138000F11D8081B60190E00E94F2098110F5CF35
:10139000222009F442CEB60180E290E00E94F209D8
:1013A0002A94F6CFF6018681978102C08FEF9FEFD6
:1013B0002B96E2E10C94A80AFC0105906150704064
:1013C0000110D8F7809590958E0F9F1F0895FC010E
:1013D0006150704001900110D8F7809590958E0F64
:1013E0009F1F08950F931F93CF93DF93FB012381DA
:1013F00021FD03C08FEF9FEF2CC022FF16C0468156
:101400005781248135814217530744F4A081B1816B
:101410009D012F5F3F4F318320838C93268137813D
:101420002F5F3F4F3783268314C08B01EC01FB01F4
:101430000084F185E02D0995892BE1F6D8011696F7
:101440008D919C911797019617969C938E93169762
:10145000CE01DF91CF911F910F910895FA01AA2734
:10146000283051F1203181F1E8946F936E7F6E5FE7
:101470007F4F8F4F9F4FAF4FB1E03ED0B4E03CD095
:10148000670F781F891F9A1FA11D680F791F8A1F78
:10149000911DA11D6A0F711D811D911DA11D20D0DF
:1014A00009F468943F912AE0269F11243019305D99
:1014B0003193DEF6CF010895462F4770405D41938A
:1014C000B3E00FD0C9F7F6CF462F4F70405D4A33D7
:1014D00018F0495D31FD4052419302D0A9F7EACF9F
:1014E000B4E0A6959795879577956795BA95C9F7CE
:1014F00000976105710508959B01AC010A2E0694C1
:101500005795479537952795BA95C9F7620F731F79
:10151000841F951FA01D08952F923F924F925F92B6
:101520006F927F928F929F92AF92BF92CF92DF92F3
:10153000EF92FF920F931F93CF93DF93CDB7DEB758
:10154000CA1BDB0B0FB6F894DEBF0FBECDBF0994EC
:101550002A88398848885F846E847D848C849B8443
:10156000AA84B984C884DF80EE80FD800C811B8151
:10157000AA81B981CE0FD11D0FB6F894DEBF0FBE80
:0A158000CDBFED010895F894FFCFF0
:10158A000154010E414C4552543A2044726F77730C
:10159A00696E65737320446574656374656421209C
:1015AA004C6F636174696F6E3A204C61743D252EED
:1015BA0035662C204C6F6E3D252E35660D0A0001CE
:1015CA0003020302040100010101010000040000FA
:00000001FF
